{
  "_format": "hh-sol-artifact-1",
  "contractName": "EWordEngWordContract",
  "sourceName": "contracts/EWordEngWordContract.sol",
  "abi": [
    {
      "inputs": [],
      "stateMutability": "nonpayable",
      "type": "constructor"
    },
    {
      "anonymous": false,
      "inputs": [
        {
          "indexed": false,
          "internalType": "address",
          "name": "recipient",
          "type": "address"
        },
        {
          "indexed": false,
          "internalType": "uint256",
          "name": "wordId",
          "type": "uint256"
        }
      ],
      "name": "AddWord",
      "type": "event"
    },
    {
      "anonymous": false,
      "inputs": [
        {
          "indexed": true,
          "internalType": "address",
          "name": "owner",
          "type": "address"
        },
        {
          "indexed": true,
          "internalType": "address",
          "name": "spender",
          "type": "address"
        },
        {
          "indexed": false,
          "internalType": "uint256",
          "name": "value",
          "type": "uint256"
        }
      ],
      "name": "Approval",
      "type": "event"
    },
    {
      "anonymous": false,
      "inputs": [
        {
          "indexed": true,
          "internalType": "address",
          "name": "from",
          "type": "address"
        },
        {
          "indexed": true,
          "internalType": "address",
          "name": "to",
          "type": "address"
        },
        {
          "indexed": false,
          "internalType": "uint256",
          "name": "value",
          "type": "uint256"
        }
      ],
      "name": "Transfer",
      "type": "event"
    },
    {
      "anonymous": false,
      "inputs": [
        {
          "indexed": false,
          "internalType": "address",
          "name": "sender",
          "type": "address"
        },
        {
          "indexed": false,
          "internalType": "bool",
          "name": "exists",
          "type": "bool"
        }
      ],
      "name": "WhetherEWord",
      "type": "event"
    },
    {
      "inputs": [
        {
          "internalType": "string",
          "name": "engword",
          "type": "string"
        },
        {
          "internalType": "string",
          "name": "engword_pronounciation",
          "type": "string"
        },
        {
          "internalType": "string",
          "name": "engword_explained",
          "type": "string"
        }
      ],
      "name": "addEWord",
      "outputs": [],
      "stateMutability": "nonpayable",
      "type": "function"
    },
    {
      "inputs": [
        {
          "internalType": "address",
          "name": "owner",
          "type": "address"
        },
        {
          "internalType": "address",
          "name": "spender",
          "type": "address"
        }
      ],
      "name": "allowance",
      "outputs": [
        {
          "internalType": "uint256",
          "name": "",
          "type": "uint256"
        }
      ],
      "stateMutability": "view",
      "type": "function"
    },
    {
      "inputs": [
        {
          "internalType": "address",
          "name": "spender",
          "type": "address"
        },
        {
          "internalType": "uint256",
          "name": "amount",
          "type": "uint256"
        }
      ],
      "name": "approve",
      "outputs": [
        {
          "internalType": "bool",
          "name": "",
          "type": "bool"
        }
      ],
      "stateMutability": "nonpayable",
      "type": "function"
    },
    {
      "inputs": [
        {
          "internalType": "address",
          "name": "account",
          "type": "address"
        }
      ],
      "name": "balanceOf",
      "outputs": [
        {
          "internalType": "uint256",
          "name": "",
          "type": "uint256"
        }
      ],
      "stateMutability": "view",
      "type": "function"
    },
    {
      "inputs": [],
      "name": "decimals",
      "outputs": [
        {
          "internalType": "uint8",
          "name": "",
          "type": "uint8"
        }
      ],
      "stateMutability": "view",
      "type": "function"
    },
    {
      "inputs": [
        {
          "internalType": "address",
          "name": "spender",
          "type": "address"
        },
        {
          "internalType": "uint256",
          "name": "subtractedValue",
          "type": "uint256"
        }
      ],
      "name": "decreaseAllowance",
      "outputs": [
        {
          "internalType": "bool",
          "name": "",
          "type": "bool"
        }
      ],
      "stateMutability": "nonpayable",
      "type": "function"
    },
    {
      "inputs": [
        {
          "internalType": "uint256",
          "name": "wordid",
          "type": "uint256"
        }
      ],
      "name": "getAddedEngWordEngExplainedAndPronounciation",
      "outputs": [
        {
          "internalType": "string",
          "name": "",
          "type": "string"
        },
        {
          "internalType": "string",
          "name": "",
          "type": "string"
        },
        {
          "internalType": "string",
          "name": "",
          "type": "string"
        }
      ],
      "stateMutability": "view",
      "type": "function"
    },
    {
      "inputs": [],
      "name": "getEWords",
      "outputs": [
        {
          "components": [
            {
              "internalType": "uint256",
              "name": "id",
              "type": "uint256"
            },
            {
              "internalType": "string",
              "name": "engword",
              "type": "string"
            },
            {
              "internalType": "string",
              "name": "engword_pronounciation",
              "type": "string"
            },
            {
              "internalType": "string",
              "name": "engword_explained",
              "type": "string"
            }
          ],
          "internalType": "struct EWordEngWordContract.EWord[]",
          "name": "",
          "type": "tuple[]"
        }
      ],
      "stateMutability": "view",
      "type": "function"
    },
    {
      "inputs": [
        {
          "internalType": "uint256",
          "name": "wordid",
          "type": "uint256"
        }
      ],
      "name": "getEWords1",
      "outputs": [
        {
          "components": [
            {
              "internalType": "uint256",
              "name": "id",
              "type": "uint256"
            },
            {
              "internalType": "string",
              "name": "engword",
              "type": "string"
            },
            {
              "internalType": "string",
              "name": "engword_pronounciation",
              "type": "string"
            },
            {
              "internalType": "string",
              "name": "engword_explained",
              "type": "string"
            }
          ],
          "internalType": "struct EWordEngWordContract.EWord[]",
          "name": "",
          "type": "tuple[]"
        }
      ],
      "stateMutability": "view",
      "type": "function"
    },
    {
      "inputs": [
        {
          "internalType": "uint256",
          "name": "wordid",
          "type": "uint256"
        }
      ],
      "name": "getEngWordEngExplainedAndPronounciation",
      "outputs": [
        {
          "internalType": "string",
          "name": "",
          "type": "string"
        },
        {
          "internalType": "string",
          "name": "",
          "type": "string"
        },
        {
          "internalType": "string",
          "name": "",
          "type": "string"
        }
      ],
      "stateMutability": "view",
      "type": "function"
    },
    {
      "inputs": [
        {
          "internalType": "uint256",
          "name": "wordid",
          "type": "uint256"
        }
      ],
      "name": "getListOfFiveWords",
      "outputs": [
        {
          "components": [
            {
              "internalType": "uint256",
              "name": "id",
              "type": "uint256"
            },
            {
              "internalType": "string",
              "name": "engword",
              "type": "string"
            },
            {
              "internalType": "string",
              "name": "engword_pronounciation",
              "type": "string"
            },
            {
              "internalType": "string",
              "name": "engword_explained",
              "type": "string"
            }
          ],
          "internalType": "struct EWordEngWordContract.EWord[]",
          "name": "",
          "type": "tuple[]"
        }
      ],
      "stateMutability": "view",
      "type": "function"
    },
    {
      "inputs": [
        {
          "internalType": "address",
          "name": "spender",
          "type": "address"
        },
        {
          "internalType": "uint256",
          "name": "addedValue",
          "type": "uint256"
        }
      ],
      "name": "increaseAllowance",
      "outputs": [
        {
          "internalType": "bool",
          "name": "",
          "type": "bool"
        }
      ],
      "stateMutability": "nonpayable",
      "type": "function"
    },
    {
      "inputs": [],
      "name": "name",
      "outputs": [
        {
          "internalType": "string",
          "name": "",
          "type": "string"
        }
      ],
      "stateMutability": "view",
      "type": "function"
    },
    {
      "inputs": [],
      "name": "symbol",
      "outputs": [
        {
          "internalType": "string",
          "name": "",
          "type": "string"
        }
      ],
      "stateMutability": "view",
      "type": "function"
    },
    {
      "inputs": [],
      "name": "totalSupply",
      "outputs": [
        {
          "internalType": "uint256",
          "name": "",
          "type": "uint256"
        }
      ],
      "stateMutability": "view",
      "type": "function"
    },
    {
      "inputs": [
        {
          "internalType": "address",
          "name": "to",
          "type": "address"
        },
        {
          "internalType": "uint256",
          "name": "amount",
          "type": "uint256"
        }
      ],
      "name": "transfer",
      "outputs": [
        {
          "internalType": "bool",
          "name": "",
          "type": "bool"
        }
      ],
      "stateMutability": "nonpayable",
      "type": "function"
    },
    {
      "inputs": [
        {
          "internalType": "address",
          "name": "from",
          "type": "address"
        },
        {
          "internalType": "address",
          "name": "to",
          "type": "address"
        },
        {
          "internalType": "uint256",
          "name": "amount",
          "type": "uint256"
        }
      ],
      "name": "transferFrom",
      "outputs": [
        {
          "internalType": "bool",
          "name": "",
          "type": "bool"
        }
      ],
      "stateMutability": "nonpayable",
      "type": "function"
    },
    {
      "inputs": [
        {
          "internalType": "string",
          "name": "engword",
          "type": "string"
        }
      ],
      "name": "whetherEWordExists",
      "outputs": [
        {
          "internalType": "bool",
          "name": "",
          "type": "bool"
        }
      ],
      "stateMutability": "nonpayable",
      "type": "function"
    },
    {
      "inputs": [
        {
          "internalType": "string",
          "name": "engword",
          "type": "string"
        }
      ],
      "name": "whetherEWordExists1",
      "outputs": [
        {
          "components": [
            {
              "internalType": "uint256",
              "name": "id",
              "type": "uint256"
            },
            {
              "internalType": "string",
              "name": "engword",
              "type": "string"
            },
            {
              "internalType": "string",
              "name": "engword_pronounciation",
              "type": "string"
            },
            {
              "internalType": "string",
              "name": "engword_explained",
              "type": "string"
            }
          ],
          "internalType": "struct EWordEngWordContract.EWord[]",
          "name": "",
          "type": "tuple[]"
        }
      ],
      "stateMutability": "view",
      "type": "function"
    }
  ],
  "bytecode": "0x60806040526000600560006101000a81548160ff02191690831515021790555060006006553480156200003157600080fd5b5060405180602001604052806000815250604051806020016040528060008152508160039081620000639190620002f8565b508060049081620000759190620002f8565b505050620003df565b600081519050919050565b7f4e487b7100000000000000000000000000000000000000000000000000000000600052604160045260246000fd5b7f4e487b7100000000000000000000000000000000000000000000000000000000600052602260045260246000fd5b600060028204905060018216806200010057607f821691505b602082108103620001165762000115620000b8565b5b50919050565b60008190508160005260206000209050919050565b60006020601f8301049050919050565b600082821b905092915050565b600060088302620001807fffffffffffffffffffffffffffffffffffffffffffffffffffffffffffffffff8262000141565b6200018c868362000141565b95508019841693508086168417925050509392505050565b6000819050919050565b6000819050919050565b6000620001d9620001d3620001cd84620001a4565b620001ae565b620001a4565b9050919050565b6000819050919050565b620001f583620001b8565b6200020d6200020482620001e0565b8484546200014e565b825550505050565b600090565b6200022462000215565b62000231818484620001ea565b505050565b5b8181101562000259576200024d6000826200021a565b60018101905062000237565b5050565b601f821115620002a85762000272816200011c565b6200027d8462000131565b810160208510156200028d578190505b620002a56200029c8562000131565b83018262000236565b50505b505050565b600082821c905092915050565b6000620002cd60001984600802620002ad565b1980831691505092915050565b6000620002e88383620002ba565b9150826002028217905092915050565b62000303826200007e565b67ffffffffffffffff8111156200031f576200031e62000089565b5b6200032b8254620000e7565b620003388282856200025d565b600060209050601f8311600181146200037057600084156200035b578287015190505b620003678582620002da565b865550620003d7565b601f19841662000380866200011c565b60005b82811015620003aa5784890151825560018201915060208501945060208101905062000383565b86831015620003ca5784890151620003c6601f891682620002ba565b8355505b6001600288020188555050505b505050505050565b61369480620003ef6000396000f3fe608060405234801561001057600080fd5b50600436106101215760003560e01c806349d926b9116100ad5780639d72e6bf116100715780639d72e6bf1461035c578063a457c2d71461038c578063a9059cbb146103bc578063d84de2bb146103ec578063dd62ed3e1461041c57610121565b806349d926b9146102a2578063619e54ea146102be57806370a08231146102f057806376f189581461032057806395d89b411461033e57610121565b806323b872dd116100f457806323b872dd146101c257806325ab7114146101f2578063313ce56714610224578063368766a814610242578063395093511461027257610121565b806301ff83c71461012657806306fdde0314610156578063095ea7b31461017457806318160ddd146101a4575b600080fd5b610140600480360381019061013b9190612795565b61044c565b60405161014d91906129a9565b60405180910390f35b61015e6107f1565b60405161016b9190612a15565b60405180910390f35b61018e60048036038101906101899190612ac1565b610883565b60405161019b9190612b1c565b60405180910390f35b6101ac6108a6565b6040516101b99190612b46565b60405180910390f35b6101dc60048036038101906101d79190612b61565b6108b0565b6040516101e99190612b1c565b60405180910390f35b61020c60048036038101906102079190612bb4565b6108df565b60405161021b93929190612be1565b60405180910390f35b61022c610b04565b6040516102399190612c49565b60405180910390f35b61025c60048036038101906102579190612795565b610b0d565b6040516102699190612b1c565b60405180910390f35b61028c60048036038101906102879190612ac1565b610efd565b6040516102999190612b1c565b60405180910390f35b6102bc60048036038101906102b79190612c64565b610f34565b005b6102d860048036038101906102d39190612bb4565b61120b565b6040516102e793929190612be1565b60405180910390f35b61030a60048036038101906103059190612d0b565b611430565b6040516103179190612b46565b60405180910390f35b610328611478565b60405161033591906129a9565b60405180910390f35b6103466117ce565b6040516103539190612a15565b60405180910390f35b61037660048036038101906103719190612bb4565b611860565b60405161038391906129a9565b60405180910390f35b6103a660048036038101906103a19190612ac1565b611be8565b6040516103b39190612b1c565b60405180910390f35b6103d660048036038101906103d19190612ac1565b611c5f565b6040516103e39190612b1c565b60405180910390f35b61040660048036038101906104019190612bb4565b611c82565b60405161041391906129a9565b60405180910390f35b61043660048036038101906104319190612d38565b611fea565b6040516104439190612b46565b60405180910390f35b6060600060078054905067ffffffffffffffff81111561046f5761046e61266a565b5b6040519080825280602002602001820160405280156104a857816020015b610495612613565b81526020019060019003908161048d5790505b5090506000805b600780549050811015610735578480519060200120600782815481106104d8576104d7612d78565b5b90600052602060002090600402016001016040516104f69190612eaa565b604051809103902003610721576007818154811061051757610516612d78565b5b90600052602060002090600402016040518060800160405290816000820154815260200160018201805461054a90612dd6565b80601f016020809104026020016040519081016040528092919081815260200182805461057690612dd6565b80156105c35780601f10610598576101008083540402835291602001916105c3565b820191906000526020600020905b8154815290600101906020018083116105a657829003601f168201915b505050505081526020016002820180546105dc90612dd6565b80601f016020809104026020016040519081016040528092919081815260200182805461060890612dd6565b80156106555780601f1061062a57610100808354040283529160200191610655565b820191906000526020600020905b81548152906001019060200180831161063857829003601f168201915b5050505050815260200160038201805461066e90612dd6565b80601f016020809104026020016040519081016040528092919081815260200182805461069a90612dd6565b80156106e75780601f106106bc576101008083540402835291602001916106e7565b820191906000526020600020905b8154815290600101906020018083116106ca57829003601f168201915b50505050508152505083838151811061070357610702612d78565b5b6020026020010181905250818061071990612ef0565b925050610722565b5b808061072d90612ef0565b9150506104af565b5060008167ffffffffffffffff8111156107525761075161266a565b5b60405190808252806020026020018201604052801561078b57816020015b610778612613565b8152602001906001900390816107705790505b50905060005b828110156107e5578381815181106107ac576107ab612d78565b5b60200260200101518282815181106107c7576107c6612d78565b5b602002602001018190525080806107dd90612ef0565b915050610791565b50809350505050919050565b60606003805461080090612dd6565b80601f016020809104026020016040519081016040528092919081815260200182805461082c90612dd6565b80156108795780601f1061084e57610100808354040283529160200191610879565b820191906000526020600020905b81548152906001019060200180831161085c57829003601f168201915b5050505050905090565b60008061088e612071565b905061089b818585612079565b600191505092915050565b6000600254905090565b6000806108bb612071565b90506108c8858285612242565b6108d38585856122ce565b60019150509392505050565b6060806060600784815481106108f8576108f7612d78565b5b90600052602060002090600402016001016007858154811061091d5761091c612d78565b5b90600052602060002090600402016002016007868154811061094257610941612d78565b5b906000526020600020906004020160030182805461095f90612dd6565b80601f016020809104026020016040519081016040528092919081815260200182805461098b90612dd6565b80156109d85780601f106109ad576101008083540402835291602001916109d8565b820191906000526020600020905b8154815290600101906020018083116109bb57829003601f168201915b505050505092508180546109eb90612dd6565b80601f0160208091040260200160405190810160405280929190818152602001828054610a1790612dd6565b8015610a645780601f10610a3957610100808354040283529160200191610a64565b820191906000526020600020905b815481529060010190602001808311610a4757829003601f168201915b50505050509150808054610a7790612dd6565b80601f0160208091040260200160405190810160405280929190818152602001828054610aa390612dd6565b8015610af05780601f10610ac557610100808354040283529160200191610af0565b820191906000526020600020905b815481529060010190602001808311610ad357829003601f168201915b505050505090509250925092509193909250565b60006012905090565b60008060078054905067ffffffffffffffff811115610b2f57610b2e61266a565b5b604051908082528060200260200182016040528015610b6857816020015b610b55612613565b815260200190600190039081610b4d5790505b509050600080600780549050811015610e3157848051906020012060078281548110610b9757610b96612d78565b5b9060005260206000209060040201600101604051610bb59190612eaa565b604051809103902003610dfb5760078181548110610bd657610bd5612d78565b5b906000526020600020906004020160405180608001604052908160008201548152602001600182018054610c0990612dd6565b80601f0160208091040260200160405190810160405280929190818152602001828054610c3590612dd6565b8015610c825780601f10610c5757610100808354040283529160200191610c82565b820191906000526020600020905b815481529060010190602001808311610c6557829003601f168201915b50505050508152602001600282018054610c9b90612dd6565b80601f0160208091040260200160405190810160405280929190818152602001828054610cc790612dd6565b8015610d145780601f10610ce957610100808354040283529160200191610d14565b820191906000526020600020905b815481529060010190602001808311610cf757829003601f168201915b50505050508152602001600382018054610d2d90612dd6565b80601f0160208091040260200160405190810160405280929190818152602001828054610d5990612dd6565b8015610da65780601f10610d7b57610100808354040283529160200191610da6565b820191906000526020600020905b815481529060010190602001808311610d8957829003601f168201915b505050505081525050838381518110610dc257610dc1612d78565b5b60200260200101819052506001600560006101000a81548160ff0219169083151502179055508180610df390612ef0565b925050610e17565b6000600560006101000a81548160ff0219169083151502179055505b600560009054906101000a900460ff169350505050610ef8565b5060008167ffffffffffffffff811115610e4e57610e4d61266a565b5b604051908082528060200260200182016040528015610e8757816020015b610e74612613565b815260200190600190039081610e6c5790505b50905060005b82811015610ee157838181518110610ea857610ea7612d78565b5b6020026020010151828281518110610ec357610ec2612d78565b5b60200260200101819052508080610ed990612ef0565b915050610e8d565b50600560009054906101000a900460ff1693505050505b919050565b600080610f08612071565b9050610f29818585610f1a8589611fea565b610f249190612f38565b612079565b600191505092915050565b60006007805490509050600780549050905060008060078054905067ffffffffffffffff811115610f6857610f6761266a565b5b604051908082528060200260200182016040528015610fa157816020015b610f8e612613565b815260200190600190039081610f865790505b509050610fad86610b0d565b600560006101000a81548160ff021916908315150217905550610fcf8661044c565b5061101e6040518060400160405280600681526020017f6578697374730000000000000000000000000000000000000000000000000000815250600560009054906101000a900460ff16612544565b7f36be3df2301241c9f4aa3834d554de4b32dd45511d200c56a0312912b993220733600560009054906101000a900460ff1660405161105e929190612f7b565b60405180910390a1600560009054906101000a900460ff161561109e576001600560006101000a81548160ff021916908315150217905550505050611206565b6000600560006101000a81548160ff021916908315150217905550600760405180608001604052808581526020018881526020018781526020018681525090806001815401808255809150506001900390600052602060002090600402016000909190919091506000820151816000015560208201518160010190816111249190613150565b50604082015181600201908161113a9190613150565b5060608201518160030190816111509190613150565b5050508260068190555061116560065461120b565b50505033600f600085815260200190815260200160002060006101000a81548173ffffffffffffffffffffffffffffffffffffffff021916908373ffffffffffffffffffffffffffffffffffffffff1602179055507f36be3df2301241c9f4aa3834d554de4b32dd45511d200c56a0312912b993220733600560009054906101000a900460ff166040516111fa929190612f7b565b60405180910390a15050505b505050565b60608060606007848154811061122457611223612d78565b5b90600052602060002090600402016001016007858154811061124957611248612d78565b5b90600052602060002090600402016002016007868154811061126e5761126d612d78565b5b906000526020600020906004020160030182805461128b90612dd6565b80601f01602080910402602001604051908101604052809291908181526020018280546112b790612dd6565b80156113045780601f106112d957610100808354040283529160200191611304565b820191906000526020600020905b8154815290600101906020018083116112e757829003601f168201915b5050505050925081805461131790612dd6565b80601f016020809104026020016040519081016040528092919081815260200182805461134390612dd6565b80156113905780601f1061136557610100808354040283529160200191611390565b820191906000526020600020905b81548152906001019060200180831161137357829003601f168201915b505050505091508080546113a390612dd6565b80601f01602080910402602001604051908101604052809291908181526020018280546113cf90612dd6565b801561141c5780601f106113f15761010080835404028352916020019161141c565b820191906000526020600020905b8154815290600101906020018083116113ff57829003601f168201915b505050505090509250925092509193909250565b60008060008373ffffffffffffffffffffffffffffffffffffffff1673ffffffffffffffffffffffffffffffffffffffff168152602001908152602001600020549050919050565b6060600060078054905067ffffffffffffffff81111561149b5761149a61266a565b5b6040519080825280602002602001820160405280156114d457816020015b6114c1612613565b8152602001906001900390816114b95790505b5090506000805b60078054905081101561171457600781815481106114fc576114fb612d78565b5b90600052602060002090600402016040518060800160405290816000820154815260200160018201805461152f90612dd6565b80601f016020809104026020016040519081016040528092919081815260200182805461155b90612dd6565b80156115a85780601f1061157d576101008083540402835291602001916115a8565b820191906000526020600020905b81548152906001019060200180831161158b57829003601f168201915b505050505081526020016002820180546115c190612dd6565b80601f01602080910402602001604051908101604052809291908181526020018280546115ed90612dd6565b801561163a5780601f1061160f5761010080835404028352916020019161163a565b820191906000526020600020905b81548152906001019060200180831161161d57829003601f168201915b5050505050815260200160038201805461165390612dd6565b80601f016020809104026020016040519081016040528092919081815260200182805461167f90612dd6565b80156116cc5780601f106116a1576101008083540402835291602001916116cc565b820191906000526020600020905b8154815290600101906020018083116116af57829003601f168201915b5050505050815250508383815181106116e8576116e7612d78565b5b602002602001018190525081806116fe90612ef0565b925050808061170c90612ef0565b9150506114db565b5060008167ffffffffffffffff8111156117315761173061266a565b5b60405190808252806020026020018201604052801561176a57816020015b611757612613565b81526020019060019003908161174f5790505b50905060005b828110156117c45783818151811061178b5761178a612d78565b5b60200260200101518282815181106117a6576117a5612d78565b5b602002602001018190525080806117bc90612ef0565b915050611770565b5080935050505090565b6060600480546117dd90612dd6565b80601f016020809104026020016040519081016040528092919081815260200182805461180990612dd6565b80156118565780601f1061182b57610100808354040283529160200191611856565b820191906000526020600020905b81548152906001019060200180831161183957829003601f168201915b5050505050905090565b6060600060078054905067ffffffffffffffff8111156118835761188261266a565b5b6040519080825280602002602001820160405280156118bc57816020015b6118a9612613565b8152602001906001900390816118a15790505b5090506000806005856118cf9190612f38565b905060008590505b816007805490506007805490506118ee9190613222565b6118f89190612f38565b811015611b2b576007818154811061191357611912612d78565b5b90600052602060002090600402016040518060800160405290816000820154815260200160018201805461194690612dd6565b80601f016020809104026020016040519081016040528092919081815260200182805461197290612dd6565b80156119bf5780601f10611994576101008083540402835291602001916119bf565b820191906000526020600020905b8154815290600101906020018083116119a257829003601f168201915b505050505081526020016002820180546119d890612dd6565b80601f0160208091040260200160405190810160405280929190818152602001828054611a0490612dd6565b8015611a515780601f10611a2657610100808354040283529160200191611a51565b820191906000526020600020905b815481529060010190602001808311611a3457829003601f168201915b50505050508152602001600382018054611a6a90612dd6565b80601f0160208091040260200160405190810160405280929190818152602001828054611a9690612dd6565b8015611ae35780601f10611ab857610100808354040283529160200191611ae3565b820191906000526020600020905b815481529060010190602001808311611ac657829003601f168201915b505050505081525050848481518110611aff57611afe612d78565b5b60200260200101819052508280611b1590612ef0565b9350508080611b2390612ef0565b9150506118d7565b5060008267ffffffffffffffff811115611b4857611b4761266a565b5b604051908082528060200260200182016040528015611b8157816020015b611b6e612613565b815260200190600190039081611b665790505b50905060005b83811015611bdb57848181518110611ba257611ba1612d78565b5b6020026020010151828281518110611bbd57611bbc612d78565b5b60200260200101819052508080611bd390612ef0565b915050611b87565b5080945050505050919050565b600080611bf3612071565b90506000611c018286611fea565b905083811015611c46576040517f08c379a0000000000000000000000000000000000000000000000000000000008152600401611c3d906132c8565b60405180910390fd5b611c538286868403612079565b60019250505092915050565b600080611c6a612071565b9050611c778185856122ce565b600191505092915050565b6060600060078054905067ffffffffffffffff811115611ca557611ca461266a565b5b604051908082528060200260200182016040528015611cde57816020015b611ccb612613565b815260200190600190039081611cc35790505b5090506000808481611cf09190612f38565b905060008590505b6005811015611f2d5760078181548110611d1557611d14612d78565b5b906000526020600020906004020160405180608001604052908160008201548152602001600182018054611d4890612dd6565b80601f0160208091040260200160405190810160405280929190818152602001828054611d7490612dd6565b8015611dc15780601f10611d9657610100808354040283529160200191611dc1565b820191906000526020600020905b815481529060010190602001808311611da457829003601f168201915b50505050508152602001600282018054611dda90612dd6565b80601f0160208091040260200160405190810160405280929190818152602001828054611e0690612dd6565b8015611e535780601f10611e2857610100808354040283529160200191611e53565b820191906000526020600020905b815481529060010190602001808311611e3657829003601f168201915b50505050508152602001600382018054611e6c90612dd6565b80601f0160208091040260200160405190810160405280929190818152602001828054611e9890612dd6565b8015611ee55780601f10611eba57610100808354040283529160200191611ee5565b820191906000526020600020905b815481529060010190602001808311611ec857829003601f168201915b505050505081525050848481518110611f0157611f00612d78565b5b60200260200101819052508280611f1790612ef0565b9350508080611f2590612ef0565b915050611cf8565b5060008267ffffffffffffffff811115611f4a57611f4961266a565b5b604051908082528060200260200182016040528015611f8357816020015b611f70612613565b815260200190600190039081611f685790505b50905060005b83811015611fdd57848181518110611fa457611fa3612d78565b5b6020026020010151828281518110611fbf57611fbe612d78565b5b60200260200101819052508080611fd590612ef0565b915050611f89565b5080945050505050919050565b6000600160008473ffffffffffffffffffffffffffffffffffffffff1673ffffffffffffffffffffffffffffffffffffffff16815260200190815260200160002060008373ffffffffffffffffffffffffffffffffffffffff1673ffffffffffffffffffffffffffffffffffffffff16815260200190815260200160002054905092915050565b600033905090565b600073ffffffffffffffffffffffffffffffffffffffff168373ffffffffffffffffffffffffffffffffffffffff16036120e8576040517f08c379a00000000000000000000000000000000000000000000000000000000081526004016120df9061335a565b60405180910390fd5b600073ffffffffffffffffffffffffffffffffffffffff168273ffffffffffffffffffffffffffffffffffffffff1603612157576040517f08c379a000000000000000000000000000000000000000000000000000000000815260040161214e906133ec565b60405180910390fd5b80600160008573ffffffffffffffffffffffffffffffffffffffff1673ffffffffffffffffffffffffffffffffffffffff16815260200190815260200160002060008473ffffffffffffffffffffffffffffffffffffffff1673ffffffffffffffffffffffffffffffffffffffff168152602001908152602001600020819055508173ffffffffffffffffffffffffffffffffffffffff168373ffffffffffffffffffffffffffffffffffffffff167f8c5be1e5ebec7d5bd14f71427d1e84f3dd0314c0f7b2291e5b200ac8c7c3b925836040516122359190612b46565b60405180910390a3505050565b600061224e8484611fea565b90507fffffffffffffffffffffffffffffffffffffffffffffffffffffffffffffffff81146122c857818110156122ba576040517f08c379a00000000000000000000000000000000000000000000000000000000081526004016122b190613458565b60405180910390fd5b6122c78484848403612079565b5b50505050565b600073ffffffffffffffffffffffffffffffffffffffff168373ffffffffffffffffffffffffffffffffffffffff160361233d576040517f08c379a0000000000000000000000000000000000000000000000000000000008152600401612334906134ea565b60405180910390fd5b600073ffffffffffffffffffffffffffffffffffffffff168273ffffffffffffffffffffffffffffffffffffffff16036123ac576040517f08c379a00000000000000000000000000000000000000000000000000000000081526004016123a39061357c565b60405180910390fd5b6123b78383836125e0565b60008060008573ffffffffffffffffffffffffffffffffffffffff1673ffffffffffffffffffffffffffffffffffffffff1681526020019081526020016000205490508181101561243d576040517f08c379a00000000000000000000000000000000000000000000000000000000081526004016124349061360e565b60405180910390fd5b8181036000808673ffffffffffffffffffffffffffffffffffffffff1673ffffffffffffffffffffffffffffffffffffffff16815260200190815260200160002081905550816000808573ffffffffffffffffffffffffffffffffffffffff1673ffffffffffffffffffffffffffffffffffffffff168152602001908152602001600020600082825401925050819055508273ffffffffffffffffffffffffffffffffffffffff168473ffffffffffffffffffffffffffffffffffffffff167fddf252ad1be2c89b69c2b068fc378daa952ba7f163c4a11628f55a4df523b3ef8460405161252b9190612b46565b60405180910390a361253e8484846125e5565b50505050565b6125dc828260405160240161255a92919061362e565b6040516020818303038152906040527fc3b55635000000000000000000000000000000000000000000000000000000007bffffffffffffffffffffffffffffffffffffffffffffffffffffffff19166020820180517bffffffffffffffffffffffffffffffffffffffffffffffffffffffff83818316178352505050506125ea565b5050565b505050565b505050565b60008151905060006a636f6e736f6c652e6c6f679050602083016000808483855afa5050505050565b6040518060800160405280600081526020016060815260200160608152602001606081525090565b6000604051905090565b600080fd5b600080fd5b600080fd5b600080fd5b6000601f19601f8301169050919050565b7f4e487b7100000000000000000000000000000000000000000000000000000000600052604160045260246000fd5b6126a282612659565b810181811067ffffffffffffffff821117156126c1576126c061266a565b5b80604052505050565b60006126d461263b565b90506126e08282612699565b919050565b600067ffffffffffffffff821115612700576126ff61266a565b5b61270982612659565b9050602081019050919050565b82818337600083830152505050565b6000612738612733846126e5565b6126ca565b90508281526020810184848401111561275457612753612654565b5b61275f848285612716565b509392505050565b600082601f83011261277c5761277b61264f565b5b813561278c848260208601612725565b91505092915050565b6000602082840312156127ab576127aa612645565b5b600082013567ffffffffffffffff8111156127c9576127c861264a565b5b6127d584828501612767565b91505092915050565b600081519050919050565b600082825260208201905092915050565b6000819050602082019050919050565b6000819050919050565b61281d8161280a565b82525050565b600081519050919050565b600082825260208201905092915050565b60005b8381101561285d578082015181840152602081019050612842565b60008484015250505050565b600061287482612823565b61287e818561282e565b935061288e81856020860161283f565b61289781612659565b840191505092915050565b60006080830160008301516128ba6000860182612814565b50602083015184820360208601526128d28282612869565b915050604083015184820360408601526128ec8282612869565b915050606083015184820360608601526129068282612869565b9150508091505092915050565b600061291f83836128a2565b905092915050565b6000602082019050919050565b600061293f826127de565b61294981856127e9565b93508360208202850161295b856127fa565b8060005b8581101561299757848403895281516129788582612913565b945061298383612927565b925060208a0199505060018101905061295f565b50829750879550505050505092915050565b600060208201905081810360008301526129c38184612934565b905092915050565b600082825260208201905092915050565b60006129e782612823565b6129f181856129cb565b9350612a0181856020860161283f565b612a0a81612659565b840191505092915050565b60006020820190508181036000830152612a2f81846129dc565b905092915050565b600073ffffffffffffffffffffffffffffffffffffffff82169050919050565b6000612a6282612a37565b9050919050565b612a7281612a57565b8114612a7d57600080fd5b50565b600081359050612a8f81612a69565b92915050565b612a9e8161280a565b8114612aa957600080fd5b50565b600081359050612abb81612a95565b92915050565b60008060408385031215612ad857612ad7612645565b5b6000612ae685828601612a80565b9250506020612af785828601612aac565b9150509250929050565b60008115159050919050565b612b1681612b01565b82525050565b6000602082019050612b316000830184612b0d565b92915050565b612b408161280a565b82525050565b6000602082019050612b5b6000830184612b37565b92915050565b600080600060608486031215612b7a57612b79612645565b5b6000612b8886828701612a80565b9350506020612b9986828701612a80565b9250506040612baa86828701612aac565b9150509250925092565b600060208284031215612bca57612bc9612645565b5b6000612bd884828501612aac565b91505092915050565b60006060820190508181036000830152612bfb81866129dc565b90508181036020830152612c0f81856129dc565b90508181036040830152612c2381846129dc565b9050949350505050565b600060ff82169050919050565b612c4381612c2d565b82525050565b6000602082019050612c5e6000830184612c3a565b92915050565b600080600060608486031215612c7d57612c7c612645565b5b600084013567ffffffffffffffff811115612c9b57612c9a61264a565b5b612ca786828701612767565b935050602084013567ffffffffffffffff811115612cc857612cc761264a565b5b612cd486828701612767565b925050604084013567ffffffffffffffff811115612cf557612cf461264a565b5b612d0186828701612767565b9150509250925092565b600060208284031215612d2157612d20612645565b5b6000612d2f84828501612a80565b91505092915050565b60008060408385031215612d4f57612d4e612645565b5b6000612d5d85828601612a80565b9250506020612d6e85828601612a80565b9150509250929050565b7f4e487b7100000000000000000000000000000000000000000000000000000000600052603260045260246000fd5b7f4e487b7100000000000000000000000000000000000000000000000000000000600052602260045260246000fd5b60006002820490506001821680612dee57607f821691505b602082108103612e0157612e00612da7565b5b50919050565b600081905092915050565b60008190508160005260206000209050919050565b60008154612e3481612dd6565b612e3e8186612e07565b94506001821660008114612e595760018114612e6e57612ea1565b60ff1983168652811515820286019350612ea1565b612e7785612e12565b60005b83811015612e9957815481890152600182019150602081019050612e7a565b838801955050505b50505092915050565b6000612eb68284612e27565b915081905092915050565b7f4e487b7100000000000000000000000000000000000000000000000000000000600052601160045260246000fd5b6000612efb8261280a565b91507fffffffffffffffffffffffffffffffffffffffffffffffffffffffffffffffff8203612f2d57612f2c612ec1565b5b600182019050919050565b6000612f438261280a565b9150612f4e8361280a565b9250828201905080821115612f6657612f65612ec1565b5b92915050565b612f7581612a57565b82525050565b6000604082019050612f906000830185612f6c565b612f9d6020830184612b0d565b9392505050565b60008190508160005260206000209050919050565b60006020601f8301049050919050565b600082821b905092915050565b6000600883026130067fffffffffffffffffffffffffffffffffffffffffffffffffffffffffffffffff82612fc9565b6130108683612fc9565b95508019841693508086168417925050509392505050565b6000819050919050565b600061304d6130486130438461280a565b613028565b61280a565b9050919050565b6000819050919050565b61306783613032565b61307b61307382613054565b848454612fd6565b825550505050565b600090565b613090613083565b61309b81848461305e565b505050565b5b818110156130bf576130b4600082613088565b6001810190506130a1565b5050565b601f821115613104576130d581612fa4565b6130de84612fb9565b810160208510156130ed578190505b6131016130f985612fb9565b8301826130a0565b50505b505050565b600082821c905092915050565b600061312760001984600802613109565b1980831691505092915050565b60006131408383613116565b9150826002028217905092915050565b61315982612823565b67ffffffffffffffff8111156131725761317161266a565b5b61317c8254612dd6565b6131878282856130c3565b600060209050601f8311600181146131ba57600084156131a8578287015190505b6131b28582613134565b86555061321a565b601f1984166131c886612fa4565b60005b828110156131f0578489015182556001820191506020850194506020810190506131cb565b8683101561320d5784890151613209601f891682613116565b8355505b6001600288020188555050505b505050505050565b600061322d8261280a565b91506132388361280a565b92508282039050818111156132505761324f612ec1565b5b92915050565b7f45524332303a2064656372656173656420616c6c6f77616e63652062656c6f7760008201527f207a65726f000000000000000000000000000000000000000000000000000000602082015250565b60006132b26025836129cb565b91506132bd82613256565b604082019050919050565b600060208201905081810360008301526132e1816132a5565b9050919050565b7f45524332303a20617070726f76652066726f6d20746865207a65726f2061646460008201527f7265737300000000000000000000000000000000000000000000000000000000602082015250565b60006133446024836129cb565b915061334f826132e8565b604082019050919050565b6000602082019050818103600083015261337381613337565b9050919050565b7f45524332303a20617070726f766520746f20746865207a65726f20616464726560008201527f7373000000000000000000000000000000000000000000000000000000000000602082015250565b60006133d66022836129cb565b91506133e18261337a565b604082019050919050565b60006020820190508181036000830152613405816133c9565b9050919050565b7f45524332303a20696e73756666696369656e7420616c6c6f77616e6365000000600082015250565b6000613442601d836129cb565b915061344d8261340c565b602082019050919050565b6000602082019050818103600083015261347181613435565b9050919050565b7f45524332303a207472616e736665722066726f6d20746865207a65726f20616460008201527f6472657373000000000000000000000000000000000000000000000000000000602082015250565b60006134d46025836129cb565b91506134df82613478565b604082019050919050565b60006020820190508181036000830152613503816134c7565b9050919050565b7f45524332303a207472616e7366657220746f20746865207a65726f206164647260008201527f6573730000000000000000000000000000000000000000000000000000000000602082015250565b60006135666023836129cb565b91506135718261350a565b604082019050919050565b6000602082019050818103600083015261359581613559565b9050919050565b7f45524332303a207472616e7366657220616d6f756e742065786365656473206260008201527f616c616e63650000000000000000000000000000000000000000000000000000602082015250565b60006135f86026836129cb565b91506136038261359c565b604082019050919050565b60006020820190508181036000830152613627816135eb565b9050919050565b6000604082019050818103600083015261364881856129dc565b90506136576020830184612b0d565b939250505056fea2646970667358221220c450fa74bad4f820e99d12f3b457ebcebc470fcbd57ed06d1db2c34e8099509e64736f6c63430008110033",
  "linkReferences": {},
  "deployedLinkReferences": {}
}